:1000000008C100000C9406130C94DB120C94B0127F
:100010000C9485120C945A120C942F120C94041206
:100020000C94D91127C1000025C1000023C1000094
:1000300021C100001FC100001DC100001BC1000044
:1000400019C1000017C1000015C1000013C1000054
:1000500011C100000FC100000DC100000C948F11F0
:1000600009C100000C946F100C94461003C10000ED
:1000700001C10000FFC00000FDC00000FBC0000087
:10008000F9C00000F7C00000F5C00000F3C0000098
:10009000F1C00000EFC00000EDC000000C9431136F
:1000A000E9C00000E7C00000E5C00000E3C00000B8
:1000B000E1C00000DFC00000DDC00000DBC00000C8
:1000C000D9C00000D7C00000D5C00000D3C00000D8
:1000D000D1C00000CFC00000CDC00000CBC00000E8
:1000E000C9C00000D410D710C610CA10CE100E110F
:1000F000DB10DF10E510E910ED10F310F710FB1026
:100100000E1101110511091100000A0B02090C0D55
:100110000E080703040100000000000000000000BA
:1001200000000000000000000000000000000000CF
:10013000000000001211100000000000000000008C
:1001400000000000000000000000000000000000AF
:100150002100240027002A002D0030003300010177
:100160000000040107010A01000022002500280008
:100170002B002E00310034000201000005010801AF
:100180000B0105050505070508080808020202021B
:100190000A0A080804040404010101010101010123
:1001A0000303030303030303040707070C0C0C0CEE
:1001B0000C0C0C0C020202020606060606060606D7
:1001C0000B0B0B0B0B0B0B0B010210202008081064
:1001D00020401020408002010201080402010102B7
:1001E0000408102040808040201008040201800490
:1001F00002018040201008040201080402010102EB
:100200000408102040800102040810204080D2170A
:10021000E11511241FBECFEFD1E2DEBFCDBF00E05C
:100220000CBF15E0A0E0B2E0E2EEF7E300E00BBFA8
:1002300002C007900D92AC31B107D9F72BE0ACE1C9
:10024000B5E001C01D92AE3AB207E1F711E0C8E097
:10025000D1E000E006C021970109802FFE010E9435
:100260000119C730D10780E00807A9F70E94E515FA
:100270000C94E01BC5CEFC01EE57FB4F8081089526
:1002800088ED92E0089589EF92E00895FC0184855D
:10029000958508958F929F92AF92BF92CF92DF92F1
:1002A000EF92FF920F931F93CF93DF9300D01F9293
:1002B0001F92CDB7DEB78C016B0164E6C616D10480
:1002C0003CF0FC01EE57FB4F8081882309F478C095
:1002D000DA01ED91FC910190F081E02DB801655EAD
:1002E0007D4FCA0119959C017801BCEEEB1ABDEF58
:1002F000FB0A4FEFF70140834EEF31964083319672
:100300008083319690833196890F809580833196D2
:10031000C082D801A65EBD4FDC9265E070E040E08F
:1003200050E0C90107966817790730F4A1914A0F88
:10033000511D6F5F7F4FF7CF6901F8E0CF0ED11CE1
:10034000800F911FFC01EC5EFD4F4095408341E022
:10035000C41642E0D406C1F056014701D8011296F6
:100360008D919C911397F40161914F01DC01ED9106
:10037000FC910190F081E02D1995C4018E199F091F
:100380008C159D055CF31EC08EE592E09A838983EF
:1003900083E08B8389E093E09D838C83D801ED918A
:1003A000FC910190F081E02DAE014F5F5F4F67E05F
:1003B00070E0C8011995AA24AA94BB24BA9402C07B
:1003C000A12CB12CC5010F900F900F900F900F90A2
:1003D000DF91CF911F910F91FF90EF90DF90CF9021
:1003E000BF90AF909F908F900895E09130058E2F31
:1003F000880F880F80933005E9B1EC70E695E6959B
:10040000E82BE0933005409132055091330560911F
:10041000340570913505EF70F0E0EE5CFD4F8081A2
:10042000082E000C990BAA0BBB0B480F591F6A1F13
:100430007B1F4093320550933305609334057093CE
:10044000350540912005509121056091220570915C
:100450002305840F951FA61FB71F80932005909337
:100460002105A0932205B09323050895E09131055D
:100470008E2F880F880F80933105ECB1E073E295E1
:10048000EF70E82BE0933105409136055091370528
:100490006091380570913905EF70F0E0EE5CFD4F2A
:1004A0008081082E000C990BAA0BBB0B480F591F1B
:1004B0006A1F7B1F409336055093370560933805BC
:1004C0007093390540911C0550911D0560911E05E2
:1004D00070911F05840F951FA61FB71F80931C05E1
:1004E00090931D05A0931E05B0931F05089588EDF8
:1004F00092E0089589EF92E00895FB01208130E0B9
:10050000FC0133832283FB014181342BFC013383C3
:10051000228382E090E008950F931F93CF93DF939F
:100520008C01EC012696CE01E8DFD8011A96ED91F8
:10053000FC911B97CE01DF91CF911F910F911994E0
:10054000FC012281FB012083FC018381FB0181836B
:1005500082E090E0089582E493E0089583E693E0DA
:100560000895AF92BF92CF92DF92EF92FF920F93D6
:100570001F93CF93DF935C01FB0181919191A19136
:10058000B1916C017D0124E0C20ED11CE11CF11C73
:100590008F01061B170B20E030E00C151D052E0502
:1005A0003F0538F441919F0122503109E901488308
:1005B000EFCFFB01E80FF91F13826D5F7F4FF5014D
:1005C000738362830496DF91CF911F910F91FF9007
:1005D000EF90DF90CF90BF90AF90089583E793E0C6
:1005E000089586E192E0089584E993E0089585EB0B
:1005F00093E00895AF92BF92CF92DF92EF92FF9275
:100600000F931F93CF93DF935C01EB018881F5017A
:10061000828389819A81AB81BC81FB0135966C0113
:100620007D0125E0C20ED11CE11CF11C8F01061BCF
:10063000170B20E030E00C151D052E053F0538F4A2
:1006400041919F0122503109E9014883EFCFFB011D
:10065000E80FF91F14826C5F7F4FF5017483638389
:100660000596DF91CF911F910F91FF90EF90DF9052
:10067000CF90BF90AF90089588EC93E0089589EEF5
:1006800093E008956F927F928F929F92AF92BF9264
:10069000CF92DF92EF92FF920F931F93CF93DF934E
:1006A000DC01FB01808190E013969C938E9312975E
:1006B0002181922B13969C938E9312970281138122
:1006C000248135815B0186E0A80EB11C68017901A7
:1006D000C6E0CC0ED11CE11CF11CA5014E1B5F0B2A
:1006E00060E070E04C155D056E057F0540F4E501A6
:1006F00049915E01CE010297EC014883EECFEF01F4
:10070000C00FD11F1D82CF01059615969C938E9325
:100710001497EF01C00FD11F4E815F8168857985E5
:10072000065F1F4F3F01600E711E6801012E000C15
:10073000EE08FF08C40ED51EE61EF71E43018E1AF2
:100740009F0AA12CB12C8C149D04AE04BF0440F46C
:10075000E30129913E01CE010297EC012883EECFFF
:10076000400F511F9F01240F351FC9010197EC0154
:100770001882C80101978E0F9F1F17969C938E9326
:100780001697E90188809980AA80BB804C5F5F4FF3
:100790003F01640E751E8A01052E000C220B330BDF
:1007A000080D191D2A1D3B1D6301CE1ADF0AE12C1D
:1007B000F12CC016D106E206F30640F4E30169917C
:1007C0003E01CE010297EC016883EECFCA01880D8D
:1007D000991D8F01080F191F980121503109E90156
:1007E0001882BA0161507109E60FF71F1996FC9340
:1007F000EE931897F8012181428150E060E070E0AB
:10080000BA0155274427522B2081422B2381722B7A
:100810001A964D935D936D937C931D970496DF918B
:10082000CF911F910F91FF90EF90DF90CF90BF90ED
:10083000AF909F908F907F906F90089582E094E0AA
:10084000089583E294E00895FC01DB014C9150E0AF
:1008500060E070E0428353836483758311968C91CA
:100860001197582B428353836483758312968C911E
:100870001297682B428353836483758313968C91FC
:100880001397782B428353836483758314964C911A
:10089000149750E060E070E046835783608771876B
:1008A00015968C911597582B4683578360877187CF
:1008B00016968C911697682B4683578360877187AD
:1008C00017968C91782B468357836087718788E0D1
:1008D00090E00895DC01FB0112968C9112978083C1
:1008E00013968C911397818314968C91149782831D
:1008F00015968C911597838316968C911697848301
:1009000017968C911797858318968C9118978683E4
:1009100019968C91878388E090E008950F931F9338
:10092000CF93DF93CDB7DEB72A970FB6F894DEBF2B
:100930000FBECDBF8C0182E592E09A8389831B8232
:100940001C821D821E821F82188619861A86D80173
:10095000ED91FC910190F081E02DAE014F5F5F4F72
:100960006AE070E0C80119950E948311F801608760
:100970007187828793872A960FB6F894DEBF0FBEE1
:10098000CDBFDF91CF911F910F910895CF93DF934A
:10099000362F272FDC011296ED91FC911397EF0172
:1009A00009900020E9F72197CE1BDF0BAE0160E034
:1009B00070E0E32FF22F419351936193719312965C
:1009C0006D917C911397AE01CF010E94321BCE0135
:1009D0000496DF91CF910895BF92CF92DF92EF926C
:1009E000FF920F931F93CF93DF93EC018B018A81CA
:1009F000FB018083118212821382DB01179680E053
:100A0000E4E0F0E09A819F012C5F3F4F8917B8F432
:100A1000EF81F88594E0899FE00DF11D112470812C
:100A2000518142819381FD013397708331965083C8
:100A3000319640839C93F9018F5F1496E3CF8985AB
:100A4000E00FF11F808311821282138280E099856A
:100A5000F801E20FF31F2C5F3F4F8917B0F4AE850A
:100A6000BF8594E0899FA00DB11D11246C91119652
:100A70005C91119712964C91129713969C916083FA
:100A80005183428393838F5FE2CF88898083118271
:100A90001282C9011382B12C2889B21690F5EB2D70
:100AA000F0E0EE0FFF1FAB89BC89AE0FBF1F2D9189
:100AB0003C91D9010D900020E9F711976D01C21A00
:100AC000D30AD801A80FB91FA60160E070E04D93CA
:100AD0005D936D937C9313977C0124E0E20EF11CEF
:100AE0008B899C89E80FF91F60817181A601C8017B
:100AF0008E0D9F1D0E94321BC6018E0D9F1DB3944B
:100B0000CBCFDF91CF911F910F91FF90EF90DF90AE
:100B1000CF90BF900895CF93DF93DC01FB01129635
:100B20008C911297808313968D919C911497EC0170
:100B300009900020E9F72197C81BD90BAE0160E0AE
:100B400070E0418352836383748313966D917C912B
:100B50001497AE01CF0105960E94321BCE01059677
:100B6000DF91CF910895CF92DF92EF92FF920F9392
:100B70001F93CF93DF937C01EB01FC01828188837B
:100B800083818983A481B581FD0101900020E9F76B
:100B900031976F01CA1ADB0AC601A0E0B0E08A8370
:100BA0009B83AC83BD83F70164817581A601CE016F
:100BB00006960E94321BF701A681B781FD010190C4
:100BC0000020E9F731978F010A1B1B0BFE01EC0D8A
:100BD000FD1DC801A0E0B0E086839783A087B187A0
:100BE000FAE0CF0ED11CF70166817781A801CE0112
:100BF0008C0D9D1D0E94321B0C0D1D1DF701A08543
:100C0000B185FD0101900020E9F731976F01CA1A03
:100C1000DB0AFE01E00FF11FC601A0E0B0E0808317
:100C20009183A283B3830C5F1F4FF70160857185A9
:100C3000A601CE01800F911F0E94321B0C0D1D1DBD
:100C4000F7014285238594858585C00FD11F488390
:100C500029839A838B83C8010496DF91CF911F91DA
:100C60000F91FF90EF90DF90CF9008954F925F9299
:100C70006F927F928F929F92AF92BF92CF92DF92AC
:100C8000EF92FF920F931F93CF93DF93EC017B01C1
:100C9000DB011C918A81811750F4B4E01B9FB001E5
:100CA00011248F8198850E944A1A98878F831A830E
:100CB000F701379680E024E030E06E0193E0C90E42
:100CC000D11C9A8189010C5F1F4F891790F54081D3
:100CD00050E060E070E0742F6627552744279F019D
:100CE00023503109D9019C91492B2F5F3F4FD901E6
:100CF0009C91592B2F5F3F4FD9019C91692B4B83BE
:100D00005C836D837E8398014F815885B4E08B9F0F
:100D1000400D511D1124D6018D909D90AD90BC9039
:100D2000DA018D929D92AD92BC9213978F5F3496AB
:100D3000C8CFF701E20FF31FB08089858B1550F4FF
:100D4000B4E0BB9EB00111248E859F850E944A1A93
:100D50009F878E87B98640E0BE01665F7F4F898599
:100D6000F701E00FF11F0C5F1F4F481720F551816D
:100D7000828190E0A0E0B0E0DC0199278827952BE4
:100D80005081852B2381B22B8A879B87AC87BD87B7
:100D9000AE85BF85E4E04E9FA00DB11D1124FB017F
:100DA00080809180A280B3808D929D92AD92BC9202
:100DB00013974F5FD4CFB08088898B1550F46B2D7B
:100DC00070E0660F771F8B899C890E944A1A9C8B62
:100DD0008B8BB88A90E06E01F1E1CF0ED11C88892F
:100DE000981708F045C0F701E00FF11F40815181CD
:100DF0006281738198012C5F3F4FF701E20FF31F6F
:100E00004901032E000CAA08BB08840E951EA61EDD
:100E1000B71E8F010E191F092801612C712C48146F
:100E200059046A047B0438F481918F01025011093E
:100E3000D8018C93EECF420F531FF701E40FF51F3B
:100E400031971082215031092E0D3F1D3A8B298B8D
:100E50008A012B898C89E22FF82FE90FF11DE90F08
:100E6000F11DD6012D913C91318320839F5FB7CF37
:100E7000C801DF91CF911F910F91FF90EF90DF900C
:100E8000CF90BF90AF909F908F907F906F905F902A
:100E90004F9008952F923F924F925F926F927F9260
:100EA0008F929F92AF92BF92CF92DF92EF92FF927A
:100EB0000F931F93CF93DF93CDB7DEB7A8970FB6ED
:100EC000F894DEBF0FBECDBF8C010E9483112B01B1
:100ED0003C01980129573B4F3C8B2B8BF9018081BA
:100EE0009181A281B381A3019201281B390B4A0B86
:100EF0005B0BDA01C901893F9A42A105B10510F0E7
:100F000035971082780148E8E41A4BEFF40AD701CC
:100F10008D919C91892B79F0F801E557FB4F8081E9
:100F20009181A281B38184159505A605B70518F4B2
:100F3000F70111821082980120583B4F388B2F8780
:100F4000A80144585B4F5A8B498BC80144969E8B2D
:100F50008D8BD801AE57BB4FBA8FA98FF801E057E0
:100F6000FB4FF8A3EF8F215F3F4F3AA329A318014E
:100F700036E8231A3BEF330A4E5F5F4F588F4F8B93
:100F800089589B4F9CA38BA3A30192012C5E3F4FDA
:100F90004F4F5F4F2DA33EA34FA358A7D8011296E2
:100FA0008D919C911397DC01ED91FC910680F78166
:100FB000E02D19959C0197FD70C2EF85F88980811D
:100FC0009181820F931F91838083D7014D915C9112
:100FD00047305105C9F4EF89F88D80819181AC01CA
:100FE0004F5F5F4F51834083F801E80FF91F248B57
:100FF000D1018D919C91119701978D939C93892B91
:1010000069F688E090E033C04115510541F52F3F66
:10101000310589F481E090E0D7018D939C932DA157
:101020003EA14FA158A5ABA1BCA12D933D934D93DB
:101030005C931397B3CF0E948311DC01CB01841919
:101040009509A609B7090697A105B10508F4A6CF29
:10105000F801EE57FB4F10828EEF9FEF45C24130F3
:101060005105A1F42E3F310531F482E090E0F70103
:101070009183808393CFD7011D921C92E98DFA8DC5
:10108000808181118BCFC80149DC88CF4230510566
:1010900089F4D1012D933C93EF89F88D1182108250
:1010A00083E090E0D7018D939C93EF85F88931839D
:1010B000208374CF4330510569F4322F2227D101A8
:1010C0008D919C911197280F391F2D933C9384E0AB
:1010D00090E0CDCF4430510589F460E071E00E948A
:1010E000CC188F3F910531F485E090E0D7018D93C6
:1010F0009C9354CFF7011182108250CF4530510597
:1011000071F4A989BA892D933C9386E090E0F701A8
:1011100091838083AF85B8892D933C933FCF463030
:10112000510599F4322F2227E989FA89808191812A
:10113000280F391F3183208387E090E0D7018D93FA
:101140009C93F101808191815ACF4830510509F07B
:1011500025CFD7011D921C9260E071E00E94CC184F
:101160008F3F910509F01ACFE989FA898081918131
:10117000009709F0C6C0C801D1DB86E492E09A83EB
:1011800089831C821B828AE195E09E838D839887E8
:101190008F839A8789871B861C861D861E86580129
:1011A000FCEEAF1AFBEFBF0A68012AEBC21A2BEF65
:1011B000D20AD501ED91FC913097D9F184819581C6
:1011C0009C838B83808191819E838D838281938197
:1011D000DC01ED91FC910480F581E02D1995988753
:1011E0008F83D501ED91FC9182819381DC01ED919A
:1011F000FC910680F781E02D19959A87898720E078
:1012000032E040E050E02B873C874D875E87D80175
:101210008D919C91F501A081B18118966D917C9181
:101220001997DC01ED91FC91AE014F5F5F4FC80152
:101230001995B2E0AB0EB11CAC14BD0409F0B9CFE6
:10124000812C92E0992EA12CB12CF601A081B181C4
:101250001097E1F112968D919C9113979C838B834B
:1012600014968D919C9115979E838D83ED91FC91A1
:1012700011970480F581E02DCD01199598878F8312
:10128000D6018D919C91DC01ED91FC910680F78156
:10129000E02D19959A8789878B869C86AD86BE86B8
:1012A000D801ED91FC9120803180F60180819181FF
:1012B000DC01ED91FC910280F381E02D1995AE01E6
:1012C0004F5F5F4FBC01C801F1011995F2E0CF0EED
:1012D000D11CCE14DF0409F0B8CFF801EE57FB4F54
:1012E00081E0808331964082518262827382AB8931
:1012F000BC894D925D926D927C9213978FEF9FEF18
:10130000F3C08A30910509F09EC082E592E09A838D
:1013100089831B821C821D821E821F821886198669
:101320001A86F1D7F80180849184A284B3849B014A
:10133000AC01281939094A095B0949015A016D892B
:101340007E89CE01019680DAC501B40128EE33E032
:1013500040E050E00E94DF188B809C80AD80BE8012
:10136000820E931EA41EB51E8B829C82AD82BE820D
:101370009B01AC0160E472E48FE090E00E94BD1834
:101380008F809884A984BA84DC01CB01880D991DD3
:10139000AA1DBB1D8F839887A987BA87B4D78F8072
:1013A0009884A984BA8436E3931A35E6A30A34EC08
:1013B000B30A28EE33E040E050E00E94DF182B8FA4
:1013C0003C8F4D8F5E8F9B01AC0160E472E48FE037
:1013D00090E00E94BD18A5019401261B370B480B15
:1013E000590BCA01B9018B809C80AD80BE8031E071
:1013F000831A9108A108B1082B8D3C8D4D8D5E8D0F
:10140000821A930AA40AB50A20E03AEC4AE95BE39F
:101410000E94DF18820E931EA41EB51ED8011C96D2
:101420008D929D92AD92BC921F97F801608B718B4B
:10143000828B938B68D7AB89BC896D937D938D9399
:101440009C931397ABCD8630910551F46D897E89BD
:101450008F8D98A10BDC81E0E9A1FAA180839ECD5C
:101460008B30910521F4A98DBA8D1C9297CDFC018A
:10147000E154FE4FEE0FFF1FE00FF11F80819181BD
:10148000009709F48BCDDC01ED91FC910190F08186
:10149000E02D6D897E89199581CDF801EE57FB4FBE
:1014A00080818823F9F07801BDE7EB1ABBEFFB0AD6
:1014B000F70180819181A281B381A3019201281B50
:1014C000390B4A0B5B0BDA01C901853C9940A10538
:1014D000B10540F0C80122DAD7014D925D926D92BC
:1014E0007C92139780E090E0A8960FB6F894DEBF48
:1014F0000FBECDBFDF91CF911F910F91FF90EF9065
:10150000DF90CF90BF90AF909F908F907F906F9023
:101510005F904F903F902F9008952F923F924F925F
:101520005F926F927F928F929F92AF92BF92CF9273
:10153000DF92EF92FF920F931F93CF93DF93CDB77C
:10154000DEB727970FB6F894DEBF0FBECDBFE82EEB
:101550006B834F836901D7D64B015C016E2C660CFF
:10156000F12C1E82772473945F81452F50E05D83B8
:101570004C831801412C512C4F81F41608F096C071
:101580007092D505E092F7051092D6051092F805F5
:101590006B818BE296E0CAD40E9469157092D505E2
:1015A000E092F7051092D6051092F8058091D405C7
:1015B0008111FCCF2C813D812F1931092132310558
:1015C00014F020E230E0213208F020E27092D405DD
:1015D0007092D3058FEF8093D2051092D105820FC0
:1015E0008093D0057092AF058091AF0586298093D6
:1015F000AF058091AE05813071F41092AE058091F7
:10160000AF058093BB008091BC0083FDF8CF95ECC3
:101610009093BC0003C0E5EEE093BC008091D4053C
:101620008130E1F38091D105821710F42091D1052A
:10163000A0EBB5E0EEE3F5E08E2F4EE355E0841B22
:10164000821718F48D918193F7CF10923B05209368
:101650003A0590913A0580913B05981709F10115DB
:10166000110591F4A6012E81420F511D27FD5A95B7
:101670005A8349838BE296E00ED4E981FA81808314
:101680002E812F5F2E83E5CF3ED6DC01CB0188195A
:101690009909AA09BB0982159305A405B50510F39C
:1016A0008F81813208F080E2F80E66CFFE8001154E
:1016B0001105D1F028D6DC01CB0188199909AA09B6
:1016C000BB0920E030E080179107A207B30760F064
:1016D0005F81252F30E08F2D0F2C000C990B821786
:1016E000930714F4FF24FA948F2D27960FB6F894DD
:1016F000DEBF0FBECDBFDF91CF911F910F91FF9045
:10170000EF90DF90CF90BF90AF909F908F907F90A1
:101710006F905F904F903F902F9008950F931F937D
:10172000CF93DF93CDB7DEB7E0970FB6F894DEBF67
:101730000FBECDBFFC01828193818430910551F4AD
:1017400081E394E09093EF068093EE060E941315D8
:1017500061E047C086309105A9F486E394E0909358
:10176000EF068093EE060E94131560E086E1EDD44B
:1017700060E087E1EAD461E088E1E7D460E089E1F4
:10178000E4D475C18230910599F48CE394E0909390
:10179000EF068093EE060E94131560E086E1D5D433
:1017A00061E087E1D2D460E088E1CFD461E0E7CFA7
:1017B0008830910551F481E494E09093EF06809392
:1017C000EE060E94131561E0D1CF8530910581F4BA
:1017D00089E494E09093EF068093EE060E9413153F
:1017E00060E086E1B2D460E087E1AFD460E0C4CFCE
:1017F0008730910509F05DC0409132055091330565
:1018000060913405709135052AE0CE014F96BCD326
:1018100063E574E0CE01499625D440913605509198
:10182000370560913805709139052AE0CE0143965D
:10183000ABD36EE574E0CE010D9614D469E674E086
:10184000CE0101960FD418861F821A8619861C862F
:101850001B86BE016F5F7F4FCE0107969DD1BE01F3
:10186000635F7F4FCE01079648D1BE016D5E7F4F0B
:1018700044D10E944715BE01675E7F4F3ED1BE0135
:10188000615E7F4F3AD1BC0184EA9BE085D1CE01F5
:10189000079697D1CE01019694D1CE010D9691D1A4
:1018A000CE0143968ED1CE0149968BD1CE014F9673
:1018B000D0C0099709F0DBC008EE13E026E93BE051
:1018C0004EE06BE38091950B28DE8091960B90E0C3
:1018D000982F88272091970B822B90932F05809328
:1018E0002E058091980B90E0982F88272091990BD6
:1018F000822B90932D0580932C0580919A0B90E07C
:10190000982F882720919B0B822B90932B058093F7
:101910002A0580919E0B90E0982F882720919F0B9D
:10192000822B90932905809328058091A00B90E04D
:10193000982F88272091A10B822B909327058093C5
:1019400026056091A20B70E0762F66278091A30B8D
:10195000682B70932505609324054AE0CE018B9691
:101960004AD360912605709127054AE0CE018596FD
:1019700042D360912805709129054AE0CE014F9627
:101980003AD360912A0570912B054AE0CE01499621
:1019900032D360912C0570912D054AE0CE0143961B
:1019A0002AD360912E0570912F054AE0CE010D9645
:1019B00022D364E874E0CE01019654D318861F82C6
:1019C0001A8619861C861B86BE016F5F7F4FCE016B
:1019D0000796E2D0BE01635F7F4FCE0107968DD0A0
:1019E0000E944715BE016D5E7F4F87D00E9447154C
:1019F000BE01675E7F4F81D00E944715BE01615EC8
:101A00007F4F7BD00E944715BE016B5D7F4F75D025
:101A10000E944715BE01655D7F4F6FD0BC0184EA0F
:101A20009BE0BAD0CE010796CCD0CE010196C9D0AA
:101A3000CE010D96C6D0CE014396C3D0CE014996B5
:101A4000C0D0CE014F96BDD0CE018596BAD0CE0182
:101A50008B96B7D08091A80B9091A90B0196F5D7E2
:101A600089EF95E09093EF068093EE06DCD7E09641
:101A70000FB6F894DEBF0FBECDBFDF91CF911F919F
:101A80000F9108950E942E1B0F931F93CF93DF9306
:101A9000EC0188819981009729F02A813B812617E2
:101AA000370788F48B016F5F7F4F0E944A1A0097B7
:101AB00061F0998388831B830A832C813D81232BCA
:101AC00011F4FC01108281E001C080E0DF91CF9130
:101AD0001F910F910895CF93DF93EC018881998135
:101AE000009711F00E94B219198218821D821C827F
:101AF0001B821A82DF91CF910895EF92FF920F938C
:101B00001F93CF93DF93EC01FB0184819581E080EB
:101B1000F1800C811D81E114F104A9F00097A9F076
:101B2000080F191FB801CE01AFDF882361F02881AB
:101B300039818C819D81B701820F931F0E943B1BCD
:101B40001D830C8302C0CE01C6DFCE01DF91CF9191
:101B50001F910F91FF90EF900895EF92FF920F93D6
:101B60001F93CF93DF93EC017B018A01BA018CDFD5
:101B7000811103C0CE01AFDF07C01D830C83B70105
:101B8000888199810E943B1BCE01DF91CF911F91EB
:101B90000F91FF90EF900895CF93DF93EC01FB013D
:101BA0008617970751F0608171816115710521F0E9
:101BB00044815581D2DF01C08EDFCE01DF91CF910C
:101BC0000895FC01808191810C94B219CF92DF922B
:101BD000EF92FF920F931F93CF93DF936C017A01E3
:101BE0008B01C0E0D0E0CE15DF0589F0D8016D9102
:101BF0008D01D601ED91FC910190F081E02DC6019F
:101C00001995892B11F47E0102C02196ECCFC701F2
:101C1000DF91CF911F910F91FF90EF90DF90CF90C8
:101C20000895FC01918D828D981761F0828DDF01FE
:101C3000A80FB11D5D968C91928D9F5F9F73928FBF
:101C400090E008958FEF9FEF0895FC01918D828DB4
:101C5000981731F0828DE80FF11D858D90E0089581
:101C60008FEF9FEF0895FC01918D228D892F90E0D9
:101C7000805C9F4F821B91098F739927089587E39A
:101C800096E0F1DF21E0892B09F420E0822F08950E
:101C9000FC01848DDF01A80FB11DA35ABF4F2C9109
:101CA000848D90E001968F739927848FA689B789D8
:101CB0002C93A089B1898C9180648C93938D848DB1
:101CC000981306C00288F389E02D80818F7D808380
:101CD0000895EF92FF920F931F93CF93DF93EC0140
:101CE00081E0888F9B8D8C8D981305C0E889F989D8
:101CF000808185FD23C0F62E0B8D10E00F5F1F4FF6
:101D00000F731127E02E8C8DE8120BC00FB607FC65
:101D1000FACFE889F989808185FFF5CFCE01B8DF58
:101D2000F2CF8B8DFE01E80FF11DE35AFF4FF082D9
:101D30000B8FEA89FB898081806207C0EE89FF8969
:101D40006083E889F98980818064808381E090E004
:101D5000DF91CF911F910F91FF90EF900895CF9356
:101D6000DF93EC01888D8823C1F0EA89FB898081AB
:101D700085FD05C0A889B9898C9186FD0EC00FB676
:101D800007FCF5CF808185FFF2CFA889B9898C91B6
:101D900085FFEDCFCE017CDFE8CFDF91CF910895B5
:101DA00080E090E0892B19F06ADF811125C080E086
:101DB00090E0892B41F080E090E0892B21F00E9497
:101DC000000081111CC080E090E0892B41F080E090
:101DD00090E0892B21F00E940000811113C080E067
:101DE00090E0892BA1F080E090E0892B81F00E94A7
:101DF000000081110AC008950E940000D8CF0E94FF
:101E00000000E1CF0E940000EACF0C94000008958A
:101E1000089585ED8093BC008091BC0084FDFCCFCB
:101E20001092D405089540918005262F30E0240FAC
:101E3000311D21323105DCF42091D4052430C9F460
:101E4000FC0180E090E0861758F4309180052191E4
:101E5000DC01A25ABA4FA30FB11D2C930196F3CF08
:101E600080918005680F6093800580E0089581E08F
:101E7000089582E008950895E0913B0580913A0528
:101E8000E81730F4F0E0E25CFA4F808190E00895CA
:101E90008FEF9FEF089590913B0580913A05981739
:101EA00050F4E92FF0E0E25CFA4F208130E09F5FD0
:101EB00090933B0502C02FEF3FEFC9010895809139
:101EC0003A0590E020913B05821B91090895CF923D
:101ED000DF92EF92FF920F931F93CF93DF937C01DA
:101EE000262F972F8A018091D505882391F0C62F40
:101EF000D72F6E01C40ED51ECC15DD0569F0699192
:101F0000D701ED91FC910190F081E02DC701199569
:101F1000F3CF642F822F87DFC801DF91CF911F910C
:101F20000F91FF90EF90DF90CF900895CF93DF93C4
:101F30001F92CDB7DEB769832091D5052223D1F05A
:101F40002091F805203240F021E030E0FC0133839D
:101F5000228380E090E014C08091D605E82FF0E065
:101F6000E952FA4F998190838F5F8093D6058093D1
:101F7000F80504C061E0CE01019655DF81E090E0F4
:101F80000F90DF91CF910895EF92FF920F931F93DF
:101F9000CF93DF93CDB7DEB7A2970FB6F894DEBF2D
:101FA0000FBECDBF8C01CB01BA01F80111821082A6
:101FB000138212821582148230E0AE014F5F5F4FB0
:101FC0007A010E94651BF70101900020E9F7319723
:101FD000AF014E195F09B701C801BFDDA2960FB668
:101FE000F894DEBF0FBECDBFDF91CF911F910F914F
:101FF000FF90EF900895EF92FF920F931F93CF936E
:10200000DF93CDB7DEB762970FB6F894DEBF0FBE91
:10201000CDBF8C01CB01F801118210821382128294
:102020001582148250E09E012F5F3F4F7901B90164
:102030000E94511BF70101900020E9F73197AF0191
:102040004E195F09B701C80188DD62960FB6F89492
:10205000DEBF0FBECDBFDF91CF911F910F91FF90DB
:10206000EF900895FC011182108213821282158272
:1020700014826115710549F0FB0101900020E9F718
:102080003197AF01461B570B68CD08951F920F92F1
:102090000FB60F9211240BB60F922F933F934F93CD
:1020A0005F936F937F938F939F93AF93BF93EF93C0
:1020B000FF9387E396E0ECDDFF91EF91BF91AF9145
:1020C0009F918F917F916F915F914F913F912F9150
:1020D0000F900BBE0F900FBE0F901F9018951F9280
:1020E0000F920FB60F9211240BB60F922F938F936E
:1020F0009F93EF93FF93E0914706F091480680810C
:10210000E0914D06F0914E0682FD12C090818091C3
:1021100050068F5F8F7320915106821751F0E09126
:102120005006F0E0E95CF94F958F8093500601C0AE
:102130008081FF91EF919F918F912F910F900BBE16
:102140000F900FBE0F901F901895362F90E0FC0156
:10215000E85FFE4F4491FC01E853FE4F2491FC01DF
:10216000EE57FE4F9491992309F46BC0442309F470
:1021700055C050E0FA013197E231F10508F04EC048
:102180008827EE58FF4F8F4F0C94011980918000E3
:102190008F7707C0809180008F7D03C08091800081
:1021A000877F809380003AC084B58F7702C084B562
:1021B0008F7D84BD33C08091B0008F7703C0809144
:1021C000B0008F7D8093B00029C0809190008F7700
:1021D00007C0809190008F7D03C080919000877F21
:1021E000809390001BC08091A0008F7707C08091E2
:1021F000A0008F7D03C08091A000877F8093A00006
:102200000DC0809120018F7707C0809120018F7DC4
:1022100003C080912001877F80932001E92FF0E0A7
:10222000EE0FFF1FE859FE4FA591B4918FB7F894B8
:10223000EC91311103C020952E2301C02E2B2C933D
:102240008FBF0895CF93DF9390E0FC01E853FE4FDA
:102250002491FC01EE57FE4F8491882361F190E0B8
:10226000880F991FFC01E25BFE4FC591D491FC01E0
:10227000E859FE4FA591B491611109C09FB7F89438
:102280008881209582238883EC912E230BC06230B5
:1022900061F49FB7F8943881822F809583238883D7
:1022A000EC912E2B2C939FBF06C08FB7F894E8813A
:1022B0002E2B28838FBFDF91CF9108953FB7F894DD
:1022C0008091AA059091AB05A091AC05B091AD05A8
:1022D00026B5A89B05C02F3F19F00196A11DB11D81
:1022E0003FBFBA2FA92F982F8827820F911DA11DBC
:1022F000B11DBC01CD0142E0660F771F881F991FF9
:102300004A95D1F708952FB7F8946091A60570917A
:10231000A7058091A8059091A9052FBF08951F9248
:102320000F920FB60F9211242F933F938F939F9389
:10233000AF93BF938091A6059091A705A091A805A2
:10234000B091A9053091A50525E1230F2D3720F483
:102350000196A11DB11D05C028E9230F0296A11DFC
:10236000B11D2093A5058093A6059093A705A09382
:10237000A805B093A9058091AA059091AB05A091FD
:10238000AC05B091AD050196A11DB11D8093AA05C4
:102390009093AB05A093AC05B093AD05BF91AF9101
:1023A0009F918F913F912F910F900FBE0F901F9093
:1023B00018951F920F920FB60F9211240BB60F9221
:1023C0002F933F934F935F936F937F938F939F933D
:1023D000AF93BF93EF93FF93E0910E02F0910F0242
:1023E0001995FF91EF91BF91AF919F918F917F913F
:1023F0006F915F914F913F912F910F900BBE0F9076
:102400000FBE0F901F9018951F920F920FB60F924C
:1024100011240BB60F922F933F934F935F936F93BB
:102420007F938F939F93AF93BF93EF93FF93E0912D
:102430000C02F0910D021995FF91EF91BF91AF91B0
:102440009F918F917F916F915F914F913F912F91CC
:102450000F900BBE0F900FBE0F901F9018951F92FC
:102460000F920FB60F9211240BB60F922F933F933A
:102470004F935F936F937F938F939F93AF93BF938C
:10248000EF93FF93E0910202F09103021995FF91FF
:10249000EF91BF91AF919F918F917F916F915F91DC
:1024A0004F913F912F910F900BBE0F900FBE0F9049
:1024B0001F9018951F920F920FB60F9211240BB612
:1024C0000F922F933F934F935F936F937F938F93CD
:1024D0009F93AF93BF93EF93FF93E0910002F0912E
:1024E00001021995FF91EF91BF91AF919F918F914B
:1024F0007F916F915F914F913F912F910F900BBE04
:102500000F900FBE0F901F9018951F920F920FB64D
:102510000F9211240BB60F922F933F934F935F931B
:102520006F937F938F939F93AF93BF93EF93FF939B
:10253000E0910A02F0910B021995FF91EF91BF9182
:10254000AF919F918F917F916F915F914F913F914B
:102550002F910F900BBE0F900FBE0F901F901895EC
:102560001F920F920FB60F9211240BB60F922F935A
:102570003F934F935F936F937F938F939F93AF930B
:10258000BF93EF93FF93E0910802F0910902199530
:10259000FF91EF91BF91AF919F918F917F916F913B
:1025A0005F914F913F912F910F900BBE0F900FBEF7
:1025B0000F901F9018951F920F920FB60F92112433
:1025C0000BB60F922F933F934F935F936F937F932D
:1025D0008F939F93AF93BF93EF93FF93E091060286
:1025E000F09107021995FF91EF91BF91AF919F91E3
:1025F0008F917F916F915F914F913F912F910F90AC
:102600000BBE0F900FBE0F901F9018951F920F9248
:102610000FB60F9211240BB60F922F933F934F9347
:102620005F936F937F938F939F93AF93BF93EF933A
:10263000FF93E0910402F09105021995FF91EF914B
:10264000BF91AF919F918F917F916F915F914F91CA
:102650003F912F910F900BBE0F900FBE0F901F90C8
:1026600018951F920F920FB60F9211240BB60F926E
:102670002F933F934F935F936F937F938F939F938A
:10268000AF93BF93EF93FF938091B900887F80361B
:1026900009F49CC068F5883209F45BC090F480317D
:1026A00009F454C038F4882309F4F6C0883009F4DA
:1026B0004DC0F5C0883109F44CC0803209F45DC0CA
:1026C000EEC0803409F468C048F4803309F455C082
:1026D000883309F0E4C08093D205D8C0803509F46E
:1026E0004FC0883509F45DC0883409F0D8C0D6C021
:1026F000883909F4C7C0A8F4883709F467C038F4EA
:10270000883609F463C0803709F460C0C8C08838CF
:1027100009F4B8C0803909F45FC0803809F0BFC03F
:102720005BC0803B09F486C038F4803A09F466C087
:10273000883A09F47FC0B3C0803C09F4A7C0883C44
:1027400009F4A4C0883B09F48AC0A9C08091AF05F0
:1027500010C09091D1058091D005981770F5E09147
:10276000D10581E08E0F8093D105F0E0E055FA4F5E
:1027700080818093BB0085EC86C08093D2058EC09B
:10278000E091D10581E08E0F8093D1058091BB004F
:10279000F0E0E055FA4F80839091D1058091D0050B
:1027A0006EC0E091D10581E08E0F8093D1058091BC
:1027B000BB00F0E0E055FA4F80838091D305811192
:1027C0006DC081E08093AE0584EA61C083E08093B0
:1027D000D4051092A405CFCF8091A405803208F0D3
:1027E00051C0E091A40581E08E0F8093A4058091F3
:1027F000BB00F0E0EC57FA4F8083BDCF85EC8093AF
:10280000BC001092D4058091A405803230F4E09190
:10281000A405F0E0EC57FA4F10826091A40570E037
:10282000E0918205F091830584E895E01995109276
:10283000A40535C084E08093D405109281051092E0
:102840008005E0917E05F0917F05199580918005C6
:10285000811105C081E08093800510925E05E091B2
:10286000810581E08E0F80938105F0E0E25AFA4FF6
:1028700080818093BB00909181058091800598179D
:1028800008F479CF85E88093BC0009C085EC80937B
:10289000BC001092D40503C01092D205BADAFF91A1
:1028A000EF91BF91AF919F918F917F916F915F91C8
:1028B0004F913F912F910F900BBE0F900FBE0F9035
:1028C0001F901895BF92CF92DF92EF92FF920F93D5
:1028D0001F93CF93DF931F921F92CDB7DEB7F82ED1
:1028E000E62EC42EB22ED02E08EE13E09E012E5FEF
:1028F0003F4F41E00E948D0A882341F14C2D50E06A
:102900004B1951094F5F5F4F21E030E002C0220FA9
:10291000331FBA94E2F721503109042E01C0220F6F
:102920000A94EAF78D2D01C0880F4A95EAF7322FF5
:1029300030959A8193232823292B2A832983AE015A
:102940004F5F5F4F6E2D8F2D21D101C080E00F9022
:102950000F90DF91CF911F910F91FF90EF90DF903B
:10296000CF90BF900895CF92DF92EF92FF920F9396
:102970001F93CF93DF93EC016A017B0160E070E469
:1029800088E390E0A70196011AD489019A010150C9
:102990001109210931093695279517950795980151
:1029A000E889F98982E0808301151041A0F0E88967
:1029B000F989108260E070E28CE190E0A701960155
:1029C000FED3DA01C9010197A109B109B695A7950E
:1029D000979587959C01EC85FD853083EE85FF8575
:1029E0002083188EEC89FD8986E08083EA89FB8943
:1029F000808180618083EA89FB898081886080830F
:102A0000EA89FB89808180688083EA89FB898081EB
:102A10008F7D8083DF91CF911F910F91FF90EF9079
:102A2000DF90CF900895CF93DF93E2EEF6E08681BA
:102A30009781EC01A881B98164817581ED91FC9148
:102A40004CEE56E0DF91CF911994CF93DF9300972E
:102A5000D9F02091A80B3091A90B2115310519F45B
:102A60001092F90511C0EC0121972C173D0708F4CD
:102A7000E9016091A40B7091A50BAE0189EF95E07F
:102A800001D6C750DA4F1882DF91CF9108950F9386
:102A90001F93CF93DF93EC010C811D810F5F1F4FBC
:102AA000B8010E94440D882361F0288139818C810E
:102AB0009D8169E175E0820F931FDDD51D830C8335
:102AC00002C0CE0108D8CE01DF91CF911F910F91A6
:102AD00008952091F8059091F705213208F04AC039
:102AE0008091D4058111FCCF32E03093D40531E0E0
:102AF0003093D3053FEF3093D2051092D105209348
:102B0000D005A7EDB5E040EB55E0FA013E2F341BB0
:102B1000321718F43D913193F9CF1092AF052091FF
:102B2000AF05990F922B9093AF059091AE05913020
:102B300061F41092AE059091AF059093BB00909117
:102B4000BC0093FDF8CF95EC01C095EE9093BC00CE
:102B50009091D4059230E1F39091D2059F3F79F0A6
:102B60008091D205803241F08091D205803331F0DE
:102B700084E005C081E003C082E001C083E01092E0
:102B8000D6051092F8051092D5050895CF93DF93DE
:102B9000EA0191E09093D5058093F7051092D60550
:102BA0001092F8058BE296E0C1D968818BE296E03D
:102BB000BDD98FDF91E0811190E0892FDF91CF9116
:102BC000089584EA9BE00C94E10DCF93DF931F926C
:102BD0001F92CDB7DEB7789484B5826084BD84B58A
:102BE000816084BD85B5826085BD85B5816085BD08
:102BF00080916E00816080936E00109281008091C0
:102C00008100826080938100809181008160809347
:102C10008100809180008160809380008091B1006C
:102C200084608093B1008091B00081608093B00097
:102C300080919100826080939100809191008160E9
:102C400080939100809190008160809390008091AA
:102C5000A10082608093A1008091A1008160809397
:102C6000A1008091A00081608093A000809121014B
:102C700082608093210180912101816080932101F4
:102C80008091200181608093200180917A0084608E
:102C900080937A0080917A00826080937A0080919C
:102CA0007A008E7F80937A0080917A00806880938A
:102CB0007A001092C1004091F4065091F50660919F
:102CC000F6067091F7068091F2069091F3064BDEBE
:102CD0001092690B1092680B10926B0B10926A0B9A
:102CE00010926F0B10926E0B10926D0B10926C0B7A
:102CF000E4E0FBE080E090E021913191232BB1F4FE
:102D0000FC01EE0FFF1FEC5FF44F22EE36E0318343
:102D1000208383589F4F9093E7068093E60680EFC9
:102D200096E09093E9068093E80604C00196893105
:102D3000910511F7E6E3FBE080E090E0219131910D
:102D4000232B81F4FC01EE0FFF1FEA5CF44F24ED0E
:102D500036E0318320838C599F4F9093D706809320
:102D6000D60604C001968931910541F761E086E1FC
:102D700069DA61E087E166DA61E088E163DA61E0FF
:102D800089E160DA61E086E05DDA61E087E05ADAE5
:102D9000F89462E083E156DA62E082E053DA62E0BE
:102DA00082E150DA62E083E04DDA46E352E050938C
:102DB00001024093000280916A008C7F81608093C1
:102DC0006A00EC9A25EF31E0309309022093080263
:102DD000809169008F7C806180936900EA9A5093AA
:102DE00003024093020280916A00837F8460809393
:102DF0006A00ED9A30930B0220930A0280916900D9
:102E00008F73806480936900EB9A1092360510925C
:102E1000370510923805109239051092320510923C
:102E20003305109234051092350510923D0510922D
:102E30003C058CB1807382958F7090913105892B00
:102E40008093310589B18C70869586959091300577
:102E5000892B80933005789410923B0510923A05A7
:102E60001092D6051092F8051092D40581E0809357
:102E7000D3051092AE0561E084E167D961E085E198
:102E800064D98091B9008E7F8093B9008091B90098
:102E90008D7F8093B90081E48093B80085E48093AE
:102EA000BC0040E051EE60E070E087E396E05BDD5F
:102EB00081E994E09093EF068093EE06B4DD01E0A3
:102EC00023E042E06BE68091950BFCDC00E022E021
:102ED00044E06BE18091950BF5DC22E044E06CE18D
:102EE0008091950BEFDCF090950B08EE13E09E01BE
:102EF0002F5F3F4F41E06BE68F2D0E948D0A998135
:102F00009F7B99839A83AE014E5F5F4F6BE68F2D57
:102F10003DDE8DEA94E09093EF068093EE0683DD2C
:102F20009E012F5F3F4F41E065E78091950B0E9426
:102F30008D0A882339F089818E7790E09595879561
:102F40008093960B8091960B843319F48BEC94E06C
:102F500002C089EE94E09093EF068093EE0663DD65
:102F600061E086E06FD961E086E0EFD861E087E05C
:102F700069D961E087E0E9D880EF96E00E944A07CE
:102F80009DD96B017C019AD9DC01CB018C199D097B
:102F9000AE09BF09883E9340A105B105A0F30E9488
:102FA000D00EEACF10923A061092390688EE93E0DE
:102FB000A0E0B0E080933B0690933C06A0933D06D2
:102FC000B0933E062AE632E0309338062093370667
:102FD00025EC30E0309344062093430624EC30E0A7
:102FE000309346062093450620EC30E030934806A7
:102FF0002093470621EC30E030934A06209349069F
:1030000022EC30E030934C0620934B0626EC30E067
:1030100030934E0620934D061092500610925106A2
:10302000109252061092530610922E0610922D0600
:1030300080932F0690933006A0933106B09332060A
:103040008AE792E090932C0680932B066AE175E064
:1030500084EA9BE007D888E68093950B86E992E0A6
:103060009093F1068093F00687E396E09093F30641
:103070008093F20680E091EEA0E0B0E08093F40649
:103080009093F506A093F606B093F7061092720B94
:103090008AE892E09093810B8093800B1092820BD0
:1030A0001092880B1092870B1092890B10928F0B45
:1030B00010928E0B1092900B1092940B1092930B17
:1030C000E4E0FBE0119211928BE0E633F807D1F7D0
:1030D000E6E3FBE0119211928BE0E836F807D1F7B6
:1030E000E4E0F7E0119289E0E430F807D9F7E4E092
:1030F000F9E011928BE0E430F807D9F784EC92E024
:103100009093ED068093EC068AE195E09093EF06AC
:103110008093EE0683E095E09093E3068093E206C9
:103120008CEE96E09093E5068093E4061092EB0611
:103130001092EA068CEA92E09093D5068093D4062A
:1031400080EA92E09093DB068093DA061092DD0627
:103150001092DC068EE89BE09093DF068093DE06FB
:1031600081E090E09093E1068093E0068BE095E0AB
:103170009093D9068093D8060895DB018F939F938F
:1031800006D3BF91AF91A29F800D911DA39F900D7B
:10319000B29F900D1124089597FB072E16F400940A
:1031A00006D077FD08D035D007FC05D03EF49095C9
:1031B00081959F4F0895709561957F4F0895A1E285
:1031C0001A2EAA1BBB1BFD010DC0AA1FBB1FEE1FA1
:1031D000FF1FA217B307E407F50720F0A21BB30BEC
:1031E000E40BF50B661F771F881F991F1A9469F768
:1031F00060957095809590959B01AC01BD01CF01C4
:103200000895EE0FFF1F881F8BBF0790F691E02DEA
:103210001994AA1BBB1B51E107C0AA1FBB1FA6170D
:10322000B70710F0A61BB70B881F991F5A95A9F76F
:1032300080959095BC01CD010895CF93DF938230A6
:10324000910510F482E090E0E091AC0BF091AD0BB1
:1032500020E030E0C0E0D0E0309711F140815181B2
:1032600048175907C0F04817590761F482819381C4
:10327000209719F09B838A832BC09093AD0B80938A
:10328000AC0B26C02115310519F04217530718F46D
:103290009A01BE01DF01EF010280F381E02DDCCF56
:1032A0002115310509F1281B390B2430310590F423
:1032B00012968D919C9113976115710521F0FB0178
:1032C0009383828304C09093AD0B8093AC0BFD017C
:1032D000329644C0FD01E20FF31F81939193225077
:1032E00031092D933C933AC02091AA0B3091AB0B3E
:1032F000232B41F420911202309113023093AB0B37
:103300002093AA0B20911002309111022115310552
:1033100041F42DB73EB74091140250911502241B81
:10332000350BE091AA0BF091AB0BE217F307A0F479
:103330002E1B3F0B2817390778F0AC014E5F5F4F0B
:103340002417350748F04E0F5F1F5093AB0B409387
:10335000AA0B8193919302C0E0E0F0E0CF01DF91EE
:10336000CF9108950F931F93CF93DF93009709F4A4
:103370008CC0FC013297138212820091AC0B109129
:10338000AD0B0115110581F420813181820F931F4E
:103390002091AA0B3091AB0B2817390779F5F093E0
:1033A000AB0BE093AA0B71C0D80140E050E0AE1720
:1033B000BF0750F412962D913C911397AD01211542
:1033C000310509F1D901F3CF9D01DA01338322835D
:1033D00060817181860F971F8217930769F4EC0152
:1033E00028813981260F371F2E5F3F4F318320837D
:1033F0008A819B8193838283452B29F4F093AD0BC3
:10340000E093AC0B42C01396FC93EE931297ED0140
:10341000499159919E01240F351FE217F30771F46A
:1034200080819181840F951F029611969C938E93B3
:103430008281938113969C938E931297E0E0F0E043
:10344000D80112968D919C911397009719F0F8016D
:103450008C01F6CF8D919C9198012E5F3F4F820F8A
:10346000931F2091AA0B3091AB0B2817390769F4F1
:10347000309729F41092AD0B1092AC0B02C013825E
:1034800012821093AB0B0093AA0BDF91CF911F9187
:103490000F9108956F927F928F929F92AF92BF92F9
:1034A000CF92DF92EF92FF920F931F93CF93DF9310
:1034B000EC01009781F4CB01DF91CF911F910F9127
:1034C000FF90EF90DF90CF90BF90AF909F908F9044
:1034D0007F906F90B2CEFC01E60FF71F9C01225047
:1034E0003109E217F30708F4A8C0D9010D911C9126
:1034F000119706171707A8F00530110508F49BC0AF
:10350000C80104978617970708F495C0025011095F
:10351000061B170B019311936D937C93CF0122DF50
:103520008AC05B01A01AB10A4C01800E911EA091C5
:10353000AC0BB091AD0B40E050E0E12CF12C1097BA
:1035400009F44AC0A815B905D1F56D907C90119782
:10355000630182E0C80ED11CCA14DB0480F1A30110
:103560004A195B096A0182E0C80ED11C1296BC9010
:1035700012971396AC91B5E0CB16D10440F0B2820D
:10358000A38351834083D9016D937C930AC00E5F5E
:103590001F4FC301800F911FF90191838083EB2D91
:1035A000FA2FE114F10431F0D7011396FC93EE9356
:1035B000129741C0F093AD0BE093AC0B3CC08D91E2
:1035C0009C9111974817590708F4AC017D01129698
:1035D0000D90BC91A02DB3CF8091AA0B9091AB0B15
:1035E00088159905E1F446175707C8F48091100231
:1035F00090911102009741F48DB79EB7409114024B
:1036000050911502841B950BE817F907B0F4F0935D
:10361000AB0BE093AA0BF901718360830CC0CB0163
:103620000CDE7C01009749F0A801BE011BD0CE0141
:1036300099DEC70104C0CE0102C080E090E0DF91B6
:10364000CF911F910F91FF90EF90DF90CF90BF909F
:10365000AF909F908F907F906F90089581E090E061
:10366000F894AEC0FB01DC0102C001900D92415004
:103670005040D8F70895FB01DC0101900D92002025
:10368000E1F70895FB01DC014150504048F0019002
:103690000D920020C9F701C01D9241505040E0F743
:1036A00008954532510518F4423008F004C0FB017A
:1036B0001082CB010895BB274A3031F4992322F4BC
:1036C000BDE2909581959F4F3AC02532310518F49F
:1036D000223008F004C0FA011082CA010895BB2705
:1036E0002A3051F4992342F4BDE29095809570956B
:1036F00061957F4F8F4F9F4F01C0BB27FA01A62FC7
:103700006217710581059105330B30FB66F0AA271E
:10371000660F771F881F991FAA1FA21710F0A21B00
:1037200063953850A9F7A05DAA3308F0A95DA1936D
:1037300036F7B111B1931082CA0119C0BB27FB0142
:103740005527AA27880F991FAA1FA41710F0A41B9A
:1037500083955051B9F7A05DAA3308F0A95DA193F4
:10376000009779F7B111B1931192CB0100C0DC0140
:10377000FC01672F71917723E1F7329704C07C91A8
:103780006D9370836291AE17BF07C8F3089509D097
:10379000A59F900DB49F900DA49F800D911D1124A5
:1037A0000895A29FB001B39FC001A39F700D811D1A
:1037B0001124911DB29F700D811D1124911D08953A
:1037C00011E0C8E0D1E000E005C0802FFE0119DD66
:1037D0002196011DC930D10780E00807B1F7F894A0
:0237E000FFCF19
:1037E200080F080F080F080F080F080F080F080F1F
:1037F2000000AE0B8000726F7373657269616C5F5B
:103802006D7367732F526571756573745061726160
:103812006D0000FF0100010000FFFF000001000138
:10382200FF0000000000B30542033F033C03000019
:1038320000006A04240421041E04000000008B0519
:10384200FA02F702F40200000000690EE60D330EE0
:10385200110E250EAF0E00000000960F670F5F0FCE
:103862004B0F3C0F3B0F00000000EC043606F10248
:10387200EE02000000004A014A073B01000000007E
:10388200A0027D027A027702000000008C0246014B
:103892004301400100000000420D420D420D420D65
:1038A20000000000C604B102AE02AB02000000003C
:1038B200420D420D420D420D316466373965646630
:1038C20032303862363239666536623831393233EF
:1038D2006135343435353264007374645F6D7367F7
:1038E200732F55496E743136004D65737361676588
:1038F2002066726F6D206465766963652064726FFD
:10390200707065643A206D657373616765206C61E0
:1039120072676572207468616E2062756666657290
:103922002E00393932636538613136383763656361
:1039320038633862643838336563373363613431EE
:103942006431007374645F6D7367732F53747269AB
:103952006E670039663065393862646136353938E8
:1039620031393836646466353361666137613430C3
:10397200653439003131616264373331633235394C
:103982003333323631636436313833626431326410
:103992003632393500726F7373657269616C5F6DAF
:1039A2007367732F4C6F6700306164353166383846
:1039B20066633434383932663863313036383430FD
:1039C200373736343630303500726F73736572694B
:1039D200616C5F6D7367732F546F706963496E66B4
:1039E2006F0063643731363663373463353532639B
:1039F20033313166626363326665356137626332E1
:103A02003839007374645F6D7367732F54696D6521
:103A1200006C656674007269676874006261636B4A
:103A220000666F72776172640073746F7070696E92
:103A3200670A00456E636F646572423A2000456E04
:103A4200636F646572413A2000446973706C6179F6
:103A5200696E6720656E636F64657273206461745A
:103A6200613A0A00612F672076616C7565733A0AC4
:103A720000496E697469616C697A696E67204932BE
:103A82004320646576696365732E2E2E0054657338
:103A920074696E672064657669636520636F6E6E14
:103AA200656374696F6E732E2E2E004D505536303D
:103AB200353020636F6E6E656374696F6E20737547
:103AC200636365737366756C004D505536303530DF
:103AD20020636F6E6E656374696F6E206661696CD8
:103AE20065640063686174746572006D6F746F72EF
:0C3AF2005F636F6E74726F6C000900005F
:00000001FF
