:10000000D2C0000054C5000027C50000FAC400009B
:10001000CDC40000A0C4000073C4000046C40000AA
:1000200019C40000EEC00000ECC00000EAC00000EF
:10003000E8C00000E6C00000E4C00000E2C000002C
:10004000E0C00000DEC00000DCC00000DAC000003C
:10005000D8C00000D6C00000D4C00000B1C300006A
:10006000D0C0000077C300004CC30000CAC000002D
:10007000C8C00000C6C00000C4C00000C2C000006C
:10008000C0C00000BEC00000BCC00000BAC000007C
:10009000B8C00000B6C00000B4C00000B2C000008C
:1000A000B0C00000AEC00000ACC00000AAC000009C
:1000B000A8C00000A6C00000A4C00000A2C00000AC
:1000C000A0C000009EC000009CC000009AC00000BC
:1000D00098C0000096C0000094C0000092C00000CC
:1000E00090C0000000002200250028002B002E00F8
:1000F0003100340002010000050108010B0100007D
:100100002100240027002A002D00300033000101C7
:100110000000040107010A01050505050705080897
:100120000808020202020A0A080804040404010181
:100130000101010101010303030303030303040796
:1001400007070C0C0C0C0C0C0C0C0202020206062D
:100150000606060606060B0B0B0B0B0B0B0B010220
:1001600010202008081020401020408002010201C9
:100170000804020101020408102040808040201081
:1001800008040201800402018040201008040201DA
:100190000804020101020408102040800102040842
:1001A00010204080C60611241FBECFEFD1E2DEBF73
:1001B000CDBF00E00CBF12E0A0E0B2E0E6E4FEE05C
:1001C00000E00BBF02C007900D92A834B107D9F729
:1001D00023E0A8E4B2E001C01D92A230B207E1F72B
:1001E00010E0C3EDD0E000E005C021970109802FA9
:1001F000FE011BD6C23DD10780E00807B1F782D4CB
:1002000020C6FECECF93DF9390E0FC01E25AFE4F72
:100210002491FC01E85EFE4F84918823C1F090E0B8
:10022000880F991FFC01E250FF4FC591D491FC014A
:10023000EC51FF4FA591B4919FB7F8943881822F6C
:10024000809583238883EC91E22BEC939FBFDF9111
:10025000CF910895E0915A028E2F880F880F8093D6
:100260005A02ECB1E073E295EF70E82BE0935A028A
:100270004091610250916202609163027091640248
:10028000EF70F0E0E05FFD4F8081082E000C990BCD
:10029000AA0BBB0B480F591F6A1F7B1F40936102BB
:1002A000509362026093630270936402409148022B
:1002B0005091490260914A0270914B02840F951F40
:1002C000A61FB71F8093480290934902A0934A0249
:1002D000B0934B020895E09159028E2F880F880F3A
:1002E00080935902E9B1EC70E695E695E82BE0932E
:1002F000590240915D0250915E0260915F027091DF
:100300006002EF70F0E0E05FFD4F8081082E000C8E
:10031000990BAA0BBB0B480F591F6A1F7B1F4093F9
:100320005D0250935E0260935F02709360024091A1
:100330004C0250914D0260914E0270914F02840F19
:10034000951FA61FB71F80934C0290934D02A09358
:100350004E02B0934F020895CF92DF92EF92FF9238
:100360000F931F93CF93DF936C017A018B01C0E051
:10037000D0E0CE15DF0589F0D8016D918D01D60151
:10038000ED91FC910190F081E02DC6011995892B2A
:1003900011F47E0102C02196ECCFC701DF91CF910D
:1003A0001F910F91FF90EF90DF90CF900895FC0187
:1003B000918D828D981761F0828DDF01A80FB11D9C
:1003C0005D968C91928D9F5F9F73928F90E00895C0
:1003D0008FEF9FEF0895FC01918D828D981731F07A
:1003E000828DE80FF11D858D90E008958FEF9FEFCE
:1003F0000895FC01918D228D892F90E0805C9F4FA4
:10040000821B91098F739927089585E692E0F1DFA9
:1004100021E0892B09F420E0822F0895FC01848DCE
:10042000DF01A80FB11DA35ABF4F2C91848D90E01E
:1004300001968F739927848FA689B7892C93A089F9
:10044000B1898C9180648C93938D848D981306C0B0
:100450000288F389E02D80818F7D80830895EF925B
:10046000FF920F931F93CF93DF93EC0181E0888F6E
:100470009B8D8C8D981305C0E889F989808185FD55
:1004800023C0F62E0B8D10E00F5F1F4F0F73112747
:10049000E02E8C8DE8120BC00FB607FCFACFE8896E
:1004A000F989808185FFF5CFCE01B8DFF2CF8B8D42
:1004B000FE01E80FF11DE35AFF4FF0820B8FEA892E
:1004C000FB898081806207C0EE89FF896083E889AB
:1004D000F98980818064808381E090E0DF91CF9111
:1004E0001F910F91FF90EF900895CF93DF93EC0150
:1004F000888D8823C1F0EA89FB89808185FD05C04C
:10050000A889B9898C9186FD0EC00FB607FCF5CF7E
:10051000808185FFF2CFA889B9898C9185FFEDCFC5
:10052000CE017CDFE8CFDF91CF91089580E090E0AD
:10053000892B19F06ADF811125C080E090E0892BBA
:1005400041F080E090E0892B21F00E9400008111B1
:100550001CC080E090E0892B41F080E090E0892B86
:1005600021F00E940000811113C080E090E0892BEF
:10057000A1F080E090E0892B81F00E9400008111C1
:100580000AC008950E940000D8CF0E940000E1CF69
:100590000E940000EACF0C94000008953FB7F89441
:1005A0008091550290915602A0915702B091580245
:1005B00026B5A89B05C02F3F19F00196A11DB11DBE
:1005C0003FBFBA2FA92F982F8827820F911DA11DF9
:1005D000B11DBC01CD0142E0660F771F881F991F36
:1005E0004A95D1F708950895009761F0FC010190B4
:1005F0000020E9F73197AF01481B590BBC0185E694
:1006000092E0AACE80E090E008958F929F92AF9200
:10061000BF92CF92DF92EF92FF920F931F93CF93EF
:10062000DF93CDB7DEB7A1970FB6F894DEBF0FBE4C
:10063000CDBF6B017C0197FF2FC0E0916502F09167
:1006400066020190F081E02D6DE285E692E0199559
:100650008C0122273327A9012C193D094E095F0976
:1006600019A2CE0181967C019AE0892E912CA12CB1
:10067000B12CCA01B901A5019401B5D3605DF701A0
:1006800062937F01211531054105510591F7CF0195
:10069000ABDF080F191F1CC09B01AC0119A28E0112
:1006A0000F5D1F4F8AE0C82ED12CE12CF12CCA011E
:1006B000B901A701960197D3605DF80162938F019C
:1006C000211531054105510591F7CF018DDF8C01D1
:1006D00080E392E089DF800F911FA1960FB6F89416
:1006E000DEBF0FBECDBFDF91CF911F910F91FF9065
:1006F000EF90DF90CF90BF90AF909F908F90089534
:100700009CD31F920F920FB60F9211240BB60F922B
:100710002F933F934F935F936F937F938F939F9309
:10072000AF93BF93EF93FF9385E692E077DEFF915F
:10073000EF91BF91AF919F918F917F916F915F9159
:100740004F913F912F910F900BBE0F900FBE0F90C6
:100750001F9018951F920F920FB60F9211240BB68F
:100760000F922F938F939F93EF93FF93E0917502D6
:10077000F09176028081E0917B02F0917C0282FD13
:1007800012C0908180917E028F5F8F7320917F02D3
:10079000821751F0E0917E02F0E0EB59FD4F958F0A
:1007A00080937E0201C08081FF91EF919F918F9194
:1007B0002F910F900BBE0F900FBE0F901F901895AA
:1007C0001F920F920FB60F9211242F933F938F9386
:1007D0009F93AF93BF938091510290915202A09149
:1007E0005302B09154023091500225E1230F2D376E
:1007F00020F40196A11DB11D05C028E9230F029622
:10080000A11DB11D2093500280935102909352027A
:10081000A0935302B09354028091550290915602D6
:10082000A0915702B09158020196A11DB11D80936D
:10083000550290935602A0935702B0935802BF916D
:10084000AF919F918F913F912F910F900FBE0F907D
:100850001F9018951F920F920FB60F9211240BB68E
:100860000F922F933F934F935F936F937F938F9349
:100870009F93AF93BF93EF93FF93E0910E02F0919C
:100880000F021995FF91EF91BF91AF919F918F91B9
:100890007F916F915F914F913F912F910F900BBE80
:1008A0000F900FBE0F901F9018951F920F920FB6CA
:1008B0000F9211240BB60F922F933F934F935F9398
:1008C0006F937F938F939F93AF93BF93EF93FF9318
:1008D000E0910C02F0910D021995FF91EF91BF91FB
:1008E000AF919F918F917F916F915F914F913F91C8
:1008F0002F910F900BBE0F900FBE0F901F90189569
:100900001F920F920FB60F9211240BB60F922F93D6
:100910003F934F935F936F937F938F939F93AF9387
:10092000BF93EF93FF93E0910202F09103021995B8
:10093000FF91EF91BF91AF919F918F917F916F91B7
:100940005F914F913F912F910F900BBE0F900FBE73
:100950000F901F9018951F920F920FB60F921124AF
:100960000BB60F922F933F934F935F936F937F93A9
:100970008F939F93AF93BF93EF93FF93E091000208
:10098000F09101021995FF91EF91BF91AF919F9165
:100990008F917F916F915F914F913F912F910F9028
:1009A0000BBE0F900FBE0F901F9018951F920F92C5
:1009B0000FB60F9211240BB60F922F933F934F93C4
:1009C0005F936F937F938F939F93AF93BF93EF93B7
:1009D000FF93E0910A02F0910B021995FF91EF91BC
:1009E000BF91AF919F918F917F916F915F914F9147
:1009F0003F912F910F900BBE0F900FBE0F901F9045
:100A000018951F920F920FB60F9211240BB60F92EA
:100A10002F933F934F935F936F937F938F939F9306
:100A2000AF93BF93EF93FF93E0910802F091090217
:100A30001995FF91EF91BF91AF919F918F917F9108
:100A40006F915F914F913F912F910F900BBE0F903F
:100A50000FBE0F901F9018951F920F920FB60F9216
:100A600011240BB60F922F933F934F935F936F9385
:100A70007F938F939F93AF93BF93EF93FF93E091F7
:100A80000602F09107021995FF91EF91BF91AF9186
:100A90009F918F917F916F915F914F913F912F9196
:100AA0000F900BBE0F900FBE0F901F9018951F92C6
:100AB0000F920FB60F9211240BB60F922F933F9304
:100AC0004F935F936F937F938F939F93AF93BF9356
:100AD000EF93FF93E0910402F09105021995FF91C5
:100AE000EF91BF91AF919F918F917F916F915F91A6
:100AF0004F913F912F910F900BBE0F900FBE0F9013
:100B00001F901895789484B5826084BD84B5816007
:100B100084BD85B5826085BD85B5816085BD8091C8
:100B20006E00816080936E00109281008091810040
:100B30008260809381008091810081608093810038
:100B4000809180008160809380008091B1008460FA
:100B50008093B1008091B00081608093B00080915B
:100B600091008260809391008091910081608093D8
:100B70009100809190008160809390008091A1000D
:100B800082608093A1008091A10081608093A10088
:100B90008091A00081608093A000809121018260FB
:100BA00080932101809121018160809321018091B6
:100BB000200181608093200180917A00846080937D
:100BC0007A0080917A00826080937A0080917A0026
:100BD0008E7F80937A0080917A00806880937A007B
:100BE0001092C100F89483E10DDB82E00BDB82E11F
:100BF00009DB83E007DB4AE251E0509301024093B6
:100C0000000280916A008C7F816080936A00EC9A78
:100C10002BE631E0309309022093080280916900AD
:100C20008F7C806180936900EA9A5093030240931D
:100C3000020280916A00837F846080936A00ED9A4B
:100C400030930B0220930A02809169008F738064B5
:100C500080936900EB9A10926102109262021092E6
:100C600063021092640210925D0210925E02109272
:100C70005F021092600210925C0210925B028CB1D3
:100C8000807382958F7090915A02892B80935A02BB
:100C900089B18C708695869590915902892B8093A5
:100CA00059027894E0917502F091760282E0808397
:100CB000E0917102F09172021082E0917302F09162
:100CC00074028FE1808310927D02E0917902F091AD
:100CD0007A0286E08083E0917702F0917802808149
:100CE00080618083E0917702F09178028081886052
:100CF0008083E0917702F091780280818068808320
:100D0000E0917702F091780280818F7D808383E388
:100D100092E06ADC609161027091620280916302EC
:100D20009091640272DC8EE392E05EDC60915D0281
:100D300070915E0280915F029091600266DC2EDC11
:100D40004B015C0188EEC82E83E0D82EE12CF12CFB
:100D500025DCDC01CB0188199909AA09BB09883E69
:100D60009340A105B10558F021E0C21AD108E1086D
:100D7000F10888EE880E83E0981EA11CB11CC114F6
:100D8000D104E104F10421F7D1DBC1CFE5E6F2E0C3
:100D90001382128288EE93E0A0E0B0E08483958312
:100DA000A683B78384E292E09183808385EC90E010
:100DB0009587848784EC90E09787868780EC90E025
:100DC000918B808B81EC90E0938B828B82EC90E016
:100DD000958B848B86EC90E0978B868B118E128E90
:100DE000138E148E0895A1E21A2EAA1BBB1BFD01BF
:100DF0000DC0AA1FBB1FEE1FFF1FA217B307E407FA
:100E0000F50720F0A21BB30BE40BF50B661F771F51
:100E1000881F991F1A9469F7609570958095909531
:100E20009B01AC01BD01CF010895EE0FFF1F881F8C
:100E30008BBF0790F691E02D199481E090E0F89433
:060E400000C0F894FFCF92
:100E4600F302F302F302F302F302F302F302F302F4
:100E560000FF0100010000FFFF0000010001FF008C
:100E6600000000002F02AC01F901D701EB01750269
:100E76000D0A00456E636F646572413A2000456E47
:080E8600636F646572422000F5
:00000001FF
