:100000000C9472000C9493000C9493000C94930045
:100010000C9493000C9493000C9493000C94930014
:100020000C9493000C9493000C9493000C94930004
:100030000C9493000C9493000C9493000C949300F4
:100040000C9493000C9493000C9493000C949300E4
:100050000C9493000C9493000C9493000C949300D4
:100060000C9493000C947C020C9493000C949300D9
:100070000C9493000C9493000C9493000C949300B4
:100080000C9493000C9493000C9493000C949300A4
:100090000C9493000C9493000C9493000C94930094
:1000A0000C9493000C9493000C9493000C94930084
:1000B0000C9493000C9493000C9493000C94930074
:1000C0000C9493000C9493000C9493000C94930064
:1000D0000C9493000C9493000C9493000C94930054
:1000E0000C94930011241FBECFEFD1E2DEBFCDBF31
:1000F00000E00CBF12E0A0E0B2E0E4E4FBE000E0CE
:100100000BBF02C007900D92AC31B107D9F712E0D6
:10011000ACE1B2E001C01D92A233B107E1F70E9449
:10012000B5020C94A0050C940000CF93DF93CDB7DB
:10013000DEB781EC90E0FC01108280EC90E0FC01E5
:10014000108282EC90E026E0FC01208384EC90E0B9
:100150002FE0FC01208385EC90E0FC01108281EC13
:1001600090E028E9FC012083DF91CF910895CF939F
:10017000DF931F92CDB7DEB78983000080EC90E05B
:10018000FC018081882F90E0807299270097B1F35D
:1001900086EC90E02981FC0120830F90DF91CF91C4
:1001A0000895CF93DF931F921F92CDB7DEB79A8346
:1001B000898389819A81FC018081882309F40CC09C
:1001C00089819A819C012F5F3F4F3A832983FC01EB
:1001D00080810E94B700EDCF0F900F90DF91CF91FB
:1001E0000895CF93DF9300D0CDB7DEB79B838A838A
:1001F000198284E20E94B7008CE20E94B700198243
:100200002EC08981882F90E02A813B81820F931F25
:10021000FC018081882F90E0292F2F938F9380E01D
:1002200092E0892F8F9380E092E08F9381E292E0B9
:10023000892F8F9381E292E08F930E94D0020F90DA
:100240000F900F900F900F900F9081E292E00E941C
:10025000D1008CE20E94B70089818F5F89838981F8
:10026000843078F28AE00E94B7008DE00E94B700E7
:100270000F900F900F90DF91CF910895CF93DF9360
:1002800000D01F921F92CDB7DEB79B838A837D83F8
:100290006C8319828C819D818530910519F089814B
:1002A000813001F58A819B81929582958F70892793
:1002B0009F7089279C01A7E4B3E00E94C102969534
:1002C00087959695879596958795C09690931E02EB
:1002D00080931D0280911D0290911E020E94B70022
:1002E00081E089838C819D818430910521F0898111
:1002F000813009F040C08A819B81969587959695BB
:100300008795969587959C01A5ECB0E20E94C10265
:10031000929582958F7089279F70892790932002EC
:1003200080931F0240911F02509120029A01ADEC70
:10033000BCEC0E94C10296958795969587959695F7
:100340008795880F991F9C01220F331F220F331F9F
:10035000820F931F9A01281B390BC901C0969093F5
:1003600031028093300280913002909131020E94DC
:10037000B70081E089838C819D818330910519F0DC
:1003800089818130D1F58A819B8196958795969553
:1003900087959C01ABE7B4E10E94C10296958795D1
:1003A0009093200280931F0240911F0250912002DF
:1003B0009A01ADECBCEC0E94C1029695879596958A
:1003C000879596958795880F991F9C01220F331F5B
:1003D000220F331F820F931F9A01281B390BC9016B
:1003E000C09690932D0280932C0280912C029091C4
:1003F0002D020E94B70081E089838C819D8182302B
:10040000910519F089818130D1F58A819B819C0108
:10041000ADECBCEC0E94C1029695879596958795A8
:10042000969587959093200280931F0240911F021A
:10043000509120029A01ADECBCEC0E94C10296954D
:1004400087959695879596958795880F991F9C0116
:10045000220F331F220F331F820F931F9A01281B75
:10046000390BC901C09690932A028093290280918A
:10047000290290912A020E94B70081E089838C8131
:100480009D818130910519F08981813029F54A815A
:100490005B819A01ADECBCEC0E94C10296958795F8
:1004A0009695879596958795880F991F9C01220FA1
:1004B000331F220F331F820F931F9A01281B390B02
:1004C000C901C09690932F0280932E0280912E0234
:1004D00090912F020E94B7008C819D8186309105FA
:1004E0001CF085E40E94B7000F900F900F900F90C2
:1004F0000F90DF91CF9108951F920F9200905F00AF
:100500000F92112400905B000F922F938F939F9373
:10051000EF93FF93CF93DF93CDB7DEB786EC90E0F8
:10052000FC01808180932B0286EC90E020912B02CD
:10053000FC012083DF91CF91FF91EF919F918F91EB
:100540002F910F9000925B000F9000925F000F9030
:100550001F901895CF93DF93CDB7DEB7F8940E9424
:1005600095007894DF91CF910895CF93DF93CDB725
:10057000DEB70E94AA02789483E092E00E94D10044
:10058000FFCFA29FB001B39FC001A39F700D811D3B
:100590001124911DB29F700D811D1124911D08958C
:1005A0000F931F93CF93DF93CDB7DEB72E970FB680
:1005B000F894DEBF0FBECDBF0E891F8986E08C8305
:1005C0001A8309838FEF9FE79E838D83AE01465E7A
:1005D0005F4F688D798DCE0101960E94FF02EF81F9
:1005E000F885E00FF11F10822E960FB6F894DEBF4B
:1005F0000FBECDBFDF91CF911F910F9108952F9224
:100600003F924F925F926F927F928F929F92AF92A2
:10061000BF92CF92DF92EF92FF920F931F93CF93EF
:10062000DF93CDB7DEB72C970FB6F894DEBF0FBEC1
:10063000CDBF7C016B018A01FC0117821682838188
:1006400081FFBDC1CE0101964C01F7019381F601F6
:1006500093FD859193FF81916F01882309F4ABC1CC
:10066000853239F493FD859193FF81916F01853235
:1006700029F4B70190E00E941005E7CF512C312CEE
:1006800020E02032A0F48B3269F030F4803259F04F
:10069000833269F420612CC08D3239F0803339F413
:1006A000216026C02260246023C0286021C027FD6D
:1006B00027C030ED380F3A3078F426FF06C0FAE054
:1006C0005F9E300D1124532E13C08AE0389E300DEA
:1006D0001124332E20620CC08E3221F426FD6BC112
:1006E000206406C08C3611F4206802C0883641F4BC
:1006F000F60193FD859193FF81916F018111C1CF27
:10070000982F9F7D9554933028F40C5F1F4FFFE383
:10071000F9830DC0833631F0833771F0833509F0EA
:100720005BC022C0F801808189830E5F1F4F442483
:100730004394512C540115C03801F2E06F0E711C26
:10074000F801A080B18026FF03C0652D70E002C0D3
:100750006FEF7FEFC5012C870E9405052C018301F7
:100760002C852F77222E17C03801F2E06F0E711CF6
:10077000F801A080B18026FF03C0652D70E002C0A3
:100780006FEF7FEFC5012C870E94FA042C012C85A6
:100790002068222E830123FC1BC0832D90E0481685
:1007A0005906B0F4B70180E290E00E9410053A9437
:1007B000F4CFF50127FC859127FE81915F01B701F8
:1007C00090E00E94100531103A94F1E04F1A510860
:1007D0004114510471F7E5C0843611F0893639F5BA
:1007E000F80127FF07C060817181828193810C5FCE
:1007F0001F4F08C060817181882777FD8095982FF1
:100800000E5F1F4F2F76B22E97FF09C090958095EF
:10081000709561957F4F8F4F9F4F2068B22E2AE0D1
:1008200030E0A4010E944205A82EA81844C08537D4
:1008300029F42F7EB22E2AE030E025C0F22FF97F76
:10084000BF2E8F36C1F018F4883579F0B4C08037E8
:1008500019F0883721F0AFC02F2F2061B22EB4FEDF
:100860000DC08B2D8460B82E09C024FF0AC09F2FB5
:100870009660B92E06C028E030E005C020E130E0E7
:1008800002C020E132E0F801B7FE07C0608171814B
:10089000828193810C5F1F4F06C06081718180E06F
:1008A00090E00E5F1F4FA4010E944205A82EA818D9
:1008B000FB2DFF77BF2EB6FE0BC02B2D2E7FA51470
:1008C00050F4B4FE0AC0B2FC08C02B2D2E7E05C029
:1008D0007A2C2B2D03C07A2C01C0752C24FF0DC05F
:1008E000FE01EA0DF11D8081803311F4297E09C0DB
:1008F00022FF06C07394739404C0822F867809F097
:10090000739423FD13C020FF06C05A2C731418F4EF
:10091000530C5718732C731468F4B70180E290E0FD
:100920002C870E94100573942C85F5CF731410F456
:10093000371801C0312C24FF12C0B70180E390E0CA
:100940002C870E9410052C8522FF17C021FF03C0B1
:1009500088E590E002C088E790E0B7010CC0822FE4
:10096000867859F021FD02C080E201C08BE227FDAC
:100970008DE2B70190E00E941005A51438F4B7018C
:1009800080E390E00E9410055A94F7CFAA94F401F6
:10099000EA0DF11D8081B70190E00E941005A110C1
:1009A000F5CF332009F451CEB70180E290E00E94E8
:1009B00010053A94F6CFF7018681978102C08FEF38
:1009C0009FEF2C960FB6F894DEBF0FBECDBFDF9120
:1009D000CF911F910F91FF90EF90DF90CF90BF903C
:1009E000AF909F908F907F906F905F904F903F90CF
:1009F0002F900895FC010590615070400110D8F7C8
:100A0000809590958E0F9F1F0895FC016150704056
:100A100001900110D8F7809590958E0F9F1F089533
:100A20000F931F93CF93DF93182F092FEB018B8127
:100A300081FD03C08FEF9FEF20C082FF10C04E8169
:100A40005F812C813D81421753077CF4E881F98155
:100A50009F012F5F3F4F39832883108306C0E885AD
:100A6000F985812F1995892B29F72E813F812F5FD9
:100A70003F4F3F832E83812F902FDF91CF911F9186
:100A80000F910895FA01AA27283051F1203181F100
:100A9000E8946F936E7F6E5F7F4F8F4F9F4FAF4F86
:100AA000B1E03ED0B4E03CD0670F781F891F9A1F99
:100AB000A11D680F791F8A1F911DA11D6A0F711D4D
:100AC000811D911DA11D20D009F468943F912AE059
:100AD000269F11243019305D3193DEF6CF01089541
:100AE000462F4770405D4193B3E00FD0C9F7F6CF72
:100AF000462F4F70405D4A3318F0495D31FD40523A
:100B0000419302D0A9F7EACFB4E0A69597958795CF
:100B100077956795BA95C9F70097610571050895AE
:100B20009B01AC010A2E069457954795379527955A
:100B3000BA95C9F7620F731F841F951FA01D0895F2
:040B4000F894FFCF57
:100B440025640057656C636F6D6520746F2045786C
:0C0B5400706C6F72657220426F740000BC
:00000001FF
